:100006000428831203138501831685018312860152
:10001600831686018312870180308316870098161F
:100026008312FF3085008600A001053020020318E8
:100036002A28A101210A03192828A201220A031944
:100046002628A20A2128A10A1D28A00A1828850107
:100056008601A0010530200203183F28A101210ACC
:1000660003193D28A201220A03193B28A20A3628B1
:10007600A10A3228A00A2D284F308A150A16F6271B
:100086006B30F6278A110A12142848288A150A1690
:0A00960040278A110A1263000428B3
:103E8000A5018701803083168700193099002430FE
:103E90009800903083129800A301230A0319522F2F
:103EA000A30A4D2F0530F6278F018E0110148C1AAE
:103EB0005B2F0C1C572F10101A08063A031DB72F42
:103EC0008C1E602F1A08831699008312A301230AFF
:103ED0000319722FA401240A0319702FA40A6B2F4F
:103EE000A30A672F1F30F6274030F627A5080319CD
:103EF0007C2F0730F6277E2F5430F627FC273A3ADE
:103F0000031D7E2FFC27B900533A0319B72FFC2756
:103F1000B800FC27B700FC27A500A301390823023D
:103F200003189C2FFC27A400273023078400831349
:103F300024088000A30A8E2FA30139082302031846
:103F4000A92F27302307840083130008A507A30A9D
:103F50009D2F3908A5073808A5073708A507031DB1
:103F6000762F83160317BF2783120313762F83162A
:103F70009812831218128A010330820008008C17ED
:103F80000C1583120313380803178F000313370827
:103F900003178D00FC308D050313A6013908260296
:103FA0000318F22F27302607840083130008031715
:103FB0008E0028300313260784008313000803179C
:103FC0008C00553083168D00AA308D008C140000B3
:103FD000000083128D0A0D0803198F0A02300313A3
:103FE000A607CE2F831603170C110800A6000C1E7F
:103FF000F72F2608990008008C1EFC2F1A080800CD
:060000008A150A16402FCC
:02400E00323F3F
:00000001FF
