:020000002028B6
:10000800F10003088301A5000408A6000A08A70058
:100018008A013120031383122608840027088A00E6
:0A00280025088300F10E710E090097
:10004000830100308A0024282030840025302D20B0
:1000500083015B2804068001840A0406031D2A2804
:1000600000340B1D592883120313A40A200824020C
:10007000031C3C2886123D28861683120313210890
:100080002402031C45288611462886158312031373
:1000900022082402031C4E2886104F28861483123F
:1000A000031323082402031C572888135828881791
:1000B0000B11830108000630831603139F0083127F
:1000C00086018801831686018801083081008B161D
:1000D0008B1732308312A000A100FF30A200A300D2
:0C00E000A4010616061506140817752862
:00002001DF
