:020000001929BC
:10000800B1001A303102031800348A01310882071E
:10001800573461346934743469346E346734203445
:1000280066346F347234203469346E347034753405
:1000380074343A34203400342534753420340A3486
:100048000D340034831603131811181283129817ED
:100058007F1C322883160C160B178B1783169816DD
:10006800080083160313181118128312981718160C
:100078007F1C422883168C160B178B1783120800D7
:10008800B1000C1E45283108990008008C1E4A282A
:100098001A080800B1008A01310882073034313467
:1000A80032343334343435343634373438343934FC
:1000B800413442344334443445344634A801A90118
:1000C800A401240821070420A500A508031918295C
:1000D800253A031D1429A40A240821070420A50091
:1000E800A508031918295C3A031D8128A40A2408C5
:1000F80021070420A500442016292508623A031D7B
:100108009D28A6010830260203181629A21F8E284A
:1001180031304420A21B9228303044202608033A6C
:10012800031D9828203044200310A20DA30DA60A11
:1001380086282508643A031DE8280430A600A31B76
:10014800DB28220823040319DB282208B20023082D
:10015800B300A7011030B100B20DB30DA70D0318FD
:10016800B9280A302702031CBB280A30A702B10BA2
:10017800B0282C3026078400270880002208B20007
:100188002308B300B4011030B100B20DB30DB40DA3
:100198000318D2280A303402031CD5280A30B402C6
:1001A8000314A20DA30DB10BC928A603A328A60A00
:1001B80005302602031816292C302607840000086B
:1001C8004E204420A60ADC282508683A031D062983
:1001D8003030442078304420A31BFD28A30803199D
:1001E800FD28230E0F394E2044200F3023054E20C2
:1001F8004420220E0F394E2044200F3022054E2075
:10020800442016292508663A031D0D29213044206B
:1002180016292508753A031D16292208442016298F
:1002280025084420A40A65280800831203138701BF
:100238008030831687001930990024309800903058
:1002480083129800A101A201A30162204A20A00004
:0E0258001430A1002008A200A3016220262974
:00000001FF
