:100006000428831203138501831685018312860152
:10001600831686018312870180308316870098161F
:100026008312FF3085008600A001053020020318E8
:100036002A28A101210A03192828A201220A031944
:100046002628A20A2128A10A1D28A00A1828850107
:100056008601A0010530200203183F28A101210ACC
:1000660003193D28A201220A03193B28A20A3628B1
:10007600A10A3228A00A2D284F308A15F2276B30A4
:10008600F2278A11142846288A1540278A11630008
:0200960004283C
:101E8000A5018701803083168700813099002430B6
:101E90009800903083129800A301230A0319522F4F
:101EA000A30A4D2F0530F2278F018E0110148C1AD2
:101EB0005B2F0C1C572F10101A08063A031DB52F64
:101EC0008C1E602F1A08831699008312A301230A1F
:101ED0000319722FA401240A0319702FA40A6B2F6F
:101EE000A30A672F0F30F2274030F227A508031905
:101EF0007C2F0730F2277E2F5430F227F8273A3A0A
:101F0000031D7E2FF827B900533A0319B52FF82780
:101F1000B800F827B700F827A500A3013908230265
:101F200003189B2FF827A4002730230784002408D8
:101F30008000A30A8E2FA301390823020318A72FBC
:101F40002730230784000008A507A30A9C2F39081F
:101F5000A5073808A5073708A507031D762F8316A0
:101F60000317BD2783120313762F8316981283124B
:101F700018128A010330820008008C170C15831296
:101F80000313380803178F000313370803178D0056
:101F9000FC308D050313A601390826020318EE2F25
:101FA000273026078400000803178E00283003130B
:101FB00026078400000803178C00553083168D0017
:101FC000AA308D008C140000000083128D0A0D08C9
:101FD00003198F0A02300313A607CC2F83160317A9
:101FE0000C110800A6000C1EF32F2608990008000B
:081FF0008C1EF82F1A080800EE
:060000008A150A16402FCC
:02400E00323F3F
:00000001FF
