:020000001A29BB
:10000800B1001A303102031800348A01310882071E
:10001800573461346934743469346E346734203445
:1000280066346F347234203469346E347034753405
:1000380074343A34203400342534753420340A3486
:100048000D340034831603131811181283129817ED
:1000580083167F1C32280C160B178B17981608006E
:1000680083160313181118128312981718167F1C79
:10007800412883168C160B178B1783160800B100BE
:100088000C1E44283108990008008C1E49281A08BB
:100098000800B1008A013108820730343134323423
:1000A80033343434353436343734383439344134ED
:1000B80042344334443445344634A801A901A401E8
:1000C800240821070420A500A50803191929253AA1
:1000D800031D1529A40A240821070420A500A50842
:1000E800031919295C3A031D8028A40A240821074A
:1000F8000420A500432017292508623A031D9C28DF
:10010800A6010830260203181729A21F8D283130AE
:100118004320A21B9128303043202608033A031DB0
:100128009728203043200310A20DA30DA60A852886
:100138002508643A031DE9280430A600A31BDB2820
:10014800220823040319DB282208B2002308B3007D
:10015800A7011030B100B20DB30DA70D0318B828D0
:100168000A302702031CBA280A30A702B10BAF28AD
:100178002C30260784008313270880002208B20049
:100188002308B300B4011030B100B20DB30DB40DA3
:100198000318D2280A303402031CD5280A30B402C6
:1001A8000314A20DA30DB10BC928A603A228A60A01
:1001B80005302602031817292C30260784008313DC
:1001C80000084D204320A60ADC282508683A031DAC
:1001D80007293030432078304320A31BFE28A3088A
:1001E8000319FE28230E0F394D2043200F30230515
:1001F8004D204320220E0F394D2043200F30220579
:100208004D20432017292508663A031D0E29213061
:10021800432017292508753A031D1729220843206A
:10022800172925084320A40A642808008312031309
:1002380086010430831686008130990024309800A6
:10024800903083129800A101A201A30161204920E6
:10025800A0001430A1002008A200A30161202729D2
:00000001FF
