:100006000428831203138501831685018312860152
:100016008316860183128701831687019816831239
:10002600FF30850086008700A001053020020318F6
:100036002A28A101210A03192828A201220A031944
:100046002628A20A2128A10A1D28A00A1828850107
:1000560086018701A0010530200203184028A1016E
:10006600210A03193E28A201220A03193C28A20AE2
:100076003728A10A3328A00A2E284F308A150A16D7
:10008600F0276B30F0278A110A12132849288A159F
:0C0096000A1640278A110A126300042891
:103E8000A501870180308316870081309900243096
:103E900098009030831298000530F0278F018E0132
:103EA00010148C1A552F0C1C512F10101A08063A9A
:103EB000031DB12F8C1E5A2F1A08831699008312E6
:103EC000A301230A03196C2FA401240A03196A2FE2
:103ED000A40A652FA30A612F1F30F0274030F02776
:103EE000A5080319762F0730F027782F5430F027D4
:103EF000F6273A3A031D782FF627B900533A0319EB
:103F0000B12FF627B800F627B700F627A500A301C2
:103F1000390823020318962FF627A4002730230719
:103F20008400831324088000A30A882FA301390882
:103F300023020318A32F27302307840083130008CC
:103F4000A507A30A972F3908A5073808A50737083A
:103F5000A507031D702F83160317B92783120313B8
:103F6000702F83169812831218128A010330820070
:103F700008008C170C1583120313380803178F00E1
:103F80000313370803178D00FC308D050313A601BA
:103F9000390826020318EC2F2730260784008313E4
:103FA000000803178E0028300313260784008313AC
:103FB000000803178C00553083168D00AA308D0041
:103FC0008C140000000083128D0A0D0803198F0A5B
:103FD00002300313A607C82F831603170C1108001D
:103FE000A6000C1EF12F2608990008008C1EF62F43
:043FF0001A080800A3
:060000008A150A16402FCC
:02400E00323F3F
:00000001FF
