:100006000428831203138501831685018312860152
:100016008316860198168312FF3085008600A0019C
:100026000530200203182528A101210A03192328D7
:10003600A201220A03192128A20A1C28A10A1828AB
:10004600A00A132885018601A001053020020318A5
:100056003A28A101210A03193828A201220A031904
:100066003628A20A3128A10A2D28A00A28284F30AE
:100076008A15F1276B30F1278A110F2841288A1536
:0800860000278A116300042821
:101E0000A501703083168F000F1D042F83128601E9
:101E100004308316860033309900243098009030C7
:101E200083129800A301230A0319182FA30A132F62
:101E30000530F1278F018E0110148C1A212F0C1CF4
:101E40001D2F10101A08063A031D9D2F8C1E262FD9
:101E50001A08831699008312B801B9010E303902AD
:101E6000031C382F031D442FE03038020318442F81
:101E70003808A6003908A700A527203083120313CD
:101E8000B8070318B90A2E2F1530A8008A30A90008
:101E90001630AA000A30AB002F30AC00AD013F3045
:101EA000AE00FF30AF00B801B9010830BA00B92761
:101EB0000F3083120313F1270030F127A50803190F
:101EC000642F0730F127662F5430F127F7273A3A6D
:101ED000031D662FF727BA00533A03199D2FF727E2
:101EE000B900F727B800F727A500A3013A08230295
:101EF0000318842FF727A4002830230784008313B6
:101F000024088000A30A762FA3013A0823020318AD
:101F1000912F28302307840083130008A507A30A04
:101F2000852F3A08A5073908A5073808A507031D16
:101F30005E2FB927831203135E2F83169812831224
:101F400018128A01033082000800270803178F0047
:101F50000313260803178D0083168C170C150C1617
:101F600055308D00AA308D008C14000000000C113B
:101F70000800831603170C128C170C158312031319
:101F8000390803178F000313380803178D00031354
:101F9000A6013A0826020318ED2F283026078400F0
:101FA0008313000803178E002930031326078400CB
:101FB0008313000803178C00553083168D00AA3058
:101FC0008D008C140000000083128D0A0D08031987
:101FD0008F0A02300313A607C92F831603170C11AB
:101FE0000800A6000C1EF22F2608990008008C1E7F
:061FF000F72F1A0808009B
:060000008A150A16002F0C
:02400E00303F41
:00000001FF
