:100006000428831203138501831685018312860152
:100016008316860198168312FF3085008600A0019C
:100026000530200203182528A101210A03192328D7
:10003600A201220A03192128A20A1C28A10A1828AB
:10004600A00A132885018601A001053020020318A5
:100056003A28A101210A03193828A201220A031904
:100066003628A20A3128A10A2D28A00A28284F30AE
:100076008A15EB276B30EB278A110F2841288A1542
:0800860000278A116300042821
:101E0000A5018601043083168600813099002430B4
:101E10009800903083129800A301230A0319122F0F
:101E2000A30A0D2F0530EB278F018E0110148C1A99
:101E30001B2F0C1C172F10101A08063A031D972F82
:101E40008C1E202F1A08831699008312B801B9013D
:101E50000E303902031C322F031D3E2FE0303802B2
:101E600003183E2F3808A6003908A7009F27203006
:101E700083120313B8070318B90A282F1530A800D6
:101E80008A30A9001630AA000A30AB002F30AC000F
:101E9000AD013F30AE00FF30AF00B801B9010830EE
:101EA000BA00B3270F3083120313EB270030EB2760
:101EB000A50803195E2F0730EB27602F5430EB275E
:101EC000F1273A3A031D602FF127BA00533A03195C
:101ED000972FF127B900F127B800F127A500A3013A
:101EE0003A08230203187E2FF127A4002830230785
:101EF0008400831324088000A30A702FA3013A08EA
:101F0000230203188B2F2830230784008313000833
:101F1000A507A30A7F2F3A08A5073908A50738089F
:101F2000A507031D582FB32783120313582F8316B9
:101F30009812831218128A010330820008002708C1
:101F400003178F000313260803178D0083168C17C1
:101F50000C150C1655308D00AA308D008C14000025
:101F600000000C110800831603170C128C170C15B7
:101F700083120313390803178F000313380803175C
:101F80008D000313A6013A0826020318E72F283014
:101F9000260784008313000803178E0029300313DB
:101FA000260784008313000803178C00553083161E
:101FB0008D00AA308D008C140000000083128D0A61
:101FC0000D0803198F0A02300313A607C32F8316C7
:101FD00003170C110800A6000C1EEC2F2608990010
:0A1FE00008008C1EF12F1A080800FB
:060000008A150A16002F0C
:02400E00223F4F
:00000001FF
