:020000001028C6
:08000800F10003088301A400CC
:10002000830100308A001C2815280313831224083A
:100030008300F10E710E0900203084002430252049
:100040008301402804068001840A0406031D222837
:10005000003483012208A1003528A103FD30A0004F
:1000600000000000A00B30286400013021020318BA
:100070002D282108A00000000000A00B3B2808004C
:10008000831603138501860187018312850186018A
:100090008701073083169F00831203130130870600
:1000A000F430A1000130A20057204C281C28043055
:1000B0008301A300FA30A00000000000A00B5C2820
:1000C0006400A30B5A28FF30A107031CA2032208D7
:1000D00021040319080057288301A1000430A2005D
:1000E000FA30A00000000000A00B72286400A20BF0
:1000F0007028A10B6E2808008301A1000430A20023
:10010000FA30A00000000000A00B8228A20B80287B
:10011000A10B7E2808008301A1000430A200FA3060
:0E0120006C206400A20B8F28A10B8D28080014
:00001001EF
